:0200000480007A
:1000000073700430735040309711001093818185D4
:1000100017010110130101FF97020000938282264D
:100020007390523073F05130170500001305C50866
:1000300097050000938545086300B5021726000068
:100040001306464B63FAC5008322050023A0550022
:1000500011059105E3EAC5FE172500001305854942
:1000600097050010938505FA1386418163FAC50050
:100070008322050023A0550011059105E3EAC5FE82
:1000800013854181938581966377B5002320050010
:100090001105E36DB5FE0921171500001305C5B262
:1000A000EF00B031EF00703579210145814519200D
:0400B000B52301A0D3
:1000B400797106D622D426D24AD0F32700B83ECA94
:1000C400F32700B03ECCF32700B83ECE5247F247A8
:1000D4006305F700F32700B03ECCF247E2477327ED
:1000E40020B83AC4732720B03AC6732720B83AC858
:1000F400A24642476385E600732720B03AC64247CA
:100104003247732500B0D98F5D8DEF007046EF0044
:10011400504DF3251030172500001305A50EEF00F0
:100124007033F529B705F0038D0537050410E12A6E
:10013400B705000237050410C522B70500013705CD
:100144000410D92AB705800037050410F122B70539
:10015400400037050410C922172500001305850B3C
:10016400EF0090400144172900001309A90BD14462
:10017400A2854A850504EF00F02DE31B94FEB250DE
:10018400225492540259014545618280A54723AA0D
:10019400F1807D55828073005010F5BF7D15854731
:1001A40063E6A7008967DCC101458280A54723AACD
:1001B400F1807D5582800545828005458280D9473E
:1001C40023AAF1807D5582800145828019C17D5525
:1001D400828041113735011022C406C62E84692A53
:1001E4002300A400B2402244054541018280170740
:1001F40000101307E7E61C43938681963E95636BD4
:10020400D50097F600109386A65F63E5A60008C3A1
:100214003E858280FD573E858280011122CC4EC6E8
:1002240006CE26CA4AC82E84B289EF00904529C555
:1002340033093401A944639909003DA00504373505
:1002440001100D226302240383450400E39895FE04
:10025400B54537350110392283450400373501107F
:1002640005040922E31224FF4E85F2406244D2447D
:100274004249B249056182807D55C5BF5D7106C0A2
:1002840012C216C41AC61EC82ACA2ECC32CE36D002
:100294003AD23ED442DC46DEF2C0F6C2FAC4FEC60E
:1002A400F322103416D6F322203416D8F322003069
:1002B40016DA732520348A85ED22B25273901234F3
:1002C400C25273902234D25273900230824012424E
:1002D400A2423243C2435245E24572468256125705
:1002E400A2576258F258064E964E264FB64F616199
:1002F40073002030AA8711C5584D0145D98DCCCF44
:1003040082807D558280AA8711C518410145D98D07
:100314008CC382807D558280AA8711C5184501450A
:10032400B98D8CC782807D558280AA8715C917072D
:100334000010032727D3B355B7021307000858C585
:100344000145FD1513D785001377F70FD8C393F52F
:10035400F50F8CC31307600C98C70D47D8C782806C
:100364007D55828001C95C4993F70702EDDF0CC11A
:10037400014582807D55828001C95C49858BF5DF0A
:1003840008411375F50F82801305F00F8280B7C7FB
:10039400000203A787FF83A7C7FF411106C622C433
:1003A40026C2BA8637C60002032786FF8327C6FF04
:1003B400F32400B0E38AE6FEB7C5000203A685FF76
:1003C40083A6C5FF3304E640F32700B0E368A4FE28
:1003D400B3849740B3F58402228681461395F500D1
:1003E400C581952933D68402B24022449244410106
:1003F4003E06329582804111054506C6493FB2400A
:1004040013054006410161B7411122C42A8417250E
:1004140000001305A5D106C6EF001015A285172507
:1004240000001305E5D1EF00F002F3251034172581
:1004340000001305E5D1EF00F001F3253034172552
:1004440000001305E5D1EF00F00001A0411122C422
:100454002A84172500001305A5D106C6EF00D01085
:10046400A285172500001305A5CDEF00A07EF32576
:100474001034172500001305A5CDEF00A07DF3254A
:1004840030342244B24017250000130565CD4101E4
:100494006F00407CB7B7C4049387074023A2F18060
:1004A400828041119317450106C622C4D18363514A
:1004B40005022D476383E7048A0713874182BA97AD
:1004C4009C4391C38297B2402244014541018280FA
:1004D40029462A87AE86636BF6008A071386C18491
:1004E400B2979C43EDD3B6853A85E9BF97070000E0
:1004F4009387C7F1B6853A85F1B7F32740F13707FB
:10050400200CB2071107BA978043C147E3ED87FA7D
:100514001317240093878187BA979C4391C38297CA
:10052400F32740F13707200CB2071107BA9780C3AD
:1005340059BF411106C622C47D3DAA871384418058
:10054400B7050300372501101CC06D33F165938591
:10055400052037350110D13B17260000130686C24B
:10056400972500009385C5C217250000130505C310
:10057400D525972500009385E5C4172500001305AC
:10058400A5C4C92D0C4017250000130525C5D92580
:1005940097060000938686E79387C1841387818733
:1005A40094C39107E39EE7FE17070000130747EA89
:1005B400938781879386C18B98C39107E39EF6FE48
:1005C400938741829386C18498C39107E39ED7FEA3
:1005D4003706000C8146B728000C05484545F3272B
:1005E40040F19E07C6978C433317D8001347F7FF93
:1005F4006D8F98C32320060085061106E391A6FE9D
:10060400F32740F13707200CB2402244B207BA97CF
:1006140023A0070041018280828082808280F326A9
:100624001030370700C0B3F7E60037060040638C8C
:10063400C71E37060080638EC71C6380E72001470E
:1006440081471386C18B93F5061091C985073297AC
:1006540093F7F70F930590042300B7003E87856551
:10066400F58D91C98507329793F7F70F9305D00459
:100674002300B7003E8793F5160091C9850732978A
:1006840093F7F70F930510042300B7003E8793F503
:10069400260091C98507329793F7F70F9305200435
:1006A4002300B7003E8793F5460091C9850732972A
:1006B40093F7F70F930530042300B7003E8793F5B3
:1006C400060191C98507329793F7F70F93055004F4
:1006D4002300B7003E8793F5060291C98507329738
:1006E40093F7F70F930560042300B7003E8793F553
:1006F400860091C98507329793F7F70F9305400455
:100704002300B7003E87C165F58D91C985073297EF
:1007140093F7F70F930510052300B7003E8793F571
:10072400060891C98507329793F7F70F930580045C
:100734002300B7003E8793F5062091C985073297B9
:1007440093F7F70F9305A0042300B7003E8793D5D2
:10075400B600858991C98507329793F7F70F9305FA
:10076400C0042300B7003E878965F58D91C98507CC
:10077400329793F7F70F9305E0042300B7003E8701
:10078400B7050400F58D91C98507329793F7F70FE4
:10079400930530052300B7003E87A165F58D91C907
:1007A4008507329793F7F70F930500052300B700E9
:1007B4003E87B7050800F58D91C98507329793F7F1
:1007C400F70F930540052300B7003E87B7051000D7
:1007D400F58D91C98507329793F7F70F9305500567
:1007E4002300B7003E87B7058000ED8E89CA329793
:1007F4008507930680052300D70013F7F70F329778
:100804009385C18B172500001305C59E230007009F
:1008140091A18D67938767431386C18B2310F600DC
:10082400094789470DB58D67938737231386C18B95
:100834002310F6000947894739B58D671386C18BA4
:10084400938717232310F600930780032301F600F0
:100854000D478D47CDBBAA88AE873288368546833F
:1008640063960620972600009386869E63FFC50A3A
:1008740041676375E60A1307F00F3337C7000E07A5
:100884003355E600AA9683C6060013050002369780
:10089400B306E540630BE500B395D70033D7E80012
:1008A4003318D600D98D3393D80093580801B3D6A2
:1008B40015031316080141829357030133F71503F7
:1008C4003685B305D6024207D98F63FCB700C297B9
:1008D4001385F6FF63E7070163F5B7001385E6FFA9
:1008E400C2978D8F33F71703420313530301B3D712
:1008F4001703420733636700B306F6023E86637B41
:10090400D30042931386F7FF636603016374D30035
:100914001386E7FF4205518D81455DA83705000127
:100924004147E36FA6F46147A1BF01E60547335889
:10093400C7024167637FE8081307F00F6373070179
:1009440021453357A800BA9603C7060013060002D0
:100954002A97B306E6406315E608B3870741854541
:100964009358080113160801418213570301B3F683
:100974001703B3D71703C206558F330EF6023E850D
:10098400637CC70142971385F7FF636707016375AB
:10099400C7011385E7FF42973307C741B3771703AE
:1009A40042031353030133571703C20733E36700AA
:1009B400B306E6023A86637BD30042931306F7FF3D
:1009C400636603016374D3001306E7FF4205518D88
:1009D4008280370700014145E365E8F6614595B734
:1009E4003318D80033D5E7003393D800B397D70032
:1009F40033D7E800935808013366F70033771503BB
:100A040093170801C1839355060133551503420713
:100A14004D8FB386A702AA85637CD70042979305BE
:100A2400F5FF636707016375D7009305E5FF4297F8
:100A3400B306D74033F7160342064182B3D61603F2
:100A440042073385D702B367C700368763FCA70024
:100A5400C2971387F6FF63E7070163F5A7001387BF
:100A6400E6FFC297C205898FD98DDDBD63E2D51437
:100A7400416763FFE6021307F00FB335D7008E0515
:100A840033D5B600171700001307877C2A9703474E
:100A94000700130500022E97B305E5406311E50234
:100AA4000545E3E7F6F233B5C800134515000DB765
:100AB40037070001C145E3E5E6FCE145D1B733580A
:100AC400E600B396B6003368D80033D3E700935EEC
:100AD4000801B376D303B397B70033D7E800331EC6
:100AE400B6003366F70093170801C1831357060154
:100AF4003353D303C206558F338F67021A85637C41
:100B0400E70142971305F3FF636707016375E70184
:100B14001305E3FF42973307E741B376D70333570F
:100B2400D703C2063383E70293170601C183D58F27
:100B34003A8663FC6700C2971306F7FF63E7070171
:100B440063F567001306E7FFC2974205C16E518D36
:100B54009386FEFF13560E0113580501B3876740B1
:100B64003373D500B376DE00330ED302B306D80256
:100B740013570E013303C30236931A973308C8027E
:100B84006373D700769893560701369863E007039A
:100B9400E39407D9C167FD177D8F4207337EFE00BA
:100BA400B398B80072978145E3F4E8E27D15ADB3DC
:100BB4008145014531BDAA8581460146014579A19A
:100BC400411122C426C217240000130464929724FE
:100BD40000009384E491058C06C6098411E4B240B4
:100BE40022449244410182807D1493172400A697E5
:100BF4009C438297E5B7411122C426C21724000002
:100C04001304048F972400009384848E818C4AC03B
:100C140006C6898401496315990217240000130448
:100C2400248D972400009384A48C818C89840149A9
:100C3400631D9900B24022449244024941018280DA
:100C44001C40050911048297F9B71C4005091104D9
:100C54008297F9BF5D7122D406D62A842EDA32DC5B
:100C640036DEBAC0BEC2C2C4C6C603A5818011C5E1
:100C74001C4D81E72AC6CD2532450C4554182286E1
:100C840036CEEF00103FB2502254616182800111D0
:100C940026CA4AC806CE22CC4EC652C4AA842E897D
:100CA40001C51C4D91E34D2D9C4C804499E3268550
:100CB40065259717000093876776631CF402C0408C
:100CC4008357C400A18BB1C71C48A1C7FD59294A49
:100CD4001C4483450900FD17B1E91CC463DE070603
:100CE4002286A94526854522FD576308F502294534
:100CF40035A097170000938767746314F400804449
:100D0400C1B7971700009387676FE31BF4FAC044D9
:100D140045BFA2852685052C55D97D55F2406244F0
:100D2400D2444249B249224A056182801CC4050961
:100D340063D70700184C63CBE700638945011C4067
:100D44001387170018C02380B70059B72286268559
:100D54001D2AE31F35F7D1B71C401387170018C0AD
:100D640029472380E70061B7AA8503A5818005B7D9
:100D7400411126C283A481809C5C22C406C62A84B5
:100D8400A1EB6145EF00B00588DC09ED9716000082
:100D94009386065C0146930520041715000013058D
:100DA400A55C392EB737CDAB9387E7301CC1B71795
:100DB4006DE6938747235CC1B7E705009387C7EEC9
:100DC4001CC5AD472316F5000547814718C95CC902
:100DD4009C5CB240924480CB224423AA0700410188
:100DE4008280411122C403A481801C5C06C6A1EB4D
:100DF4006145EF00C07E08DC09ED9716000093867C
:100E0400265501469305E004171500001305C55542
:100E1400452CB737CDAB9387E7301CC1B7176DE6C8
:100E2400938747235CC1B7E705009387C7EE1CC5CA
:100E3400AD472316F5000547814718C95CC9105C06
:100E44003787954CB7F75158144A484A1307D7F2D5
:100E54009387D742B387F602B24022443305E502B2
:100E64003E95B387E60233B7E6029386170014CAA9
:100E74002A9733B5F6003A9548CA0605058141011B
:100E840082806FF08FB3011122CC26CA4AC806CEE5
:100E94004EC6AA842E89328401C51C4D91E36D2966
:100EA40097170000938787576319F406C0401C4CBA
:100EB4001CC48357C400A18BC9C31C48BDCF1C48A4
:100EC40008409379F90F1379F90F1D8D5C48634637
:100ED400F500A2852685A5262DE51C440505FD17EC
:100EE4001CC41C401387170018C0238037015C48BA
:100EF4006389A7008357C400858B81CBA9476316F8
:100F0400F900A2852685252E0DEDF2406244D244D7
:100F1400B2494A8542490561828097170000938748
:100F2400E7516314F400804459B79717000093877E
:100F3400E74CE31EF4F6C0449DBFA285268521201C
:100F44003DDD7D59D9B7411122C426C24AC006C627
:100F540083A481802A892E8489C49C4C99E32685A4
:100F6400E52E971700009387674B6317F402C04080
:100F74008317C4001397070193F687004183ADEAF2
:100F84009376070195EA25472320E90093E70704B0
:100F94002316F4007D5571A8971700009387074A1C
:100FA4006314F4008044E9B797170000938707455A
:100FB400E310F4FCC0446DBF118B0DC74C5889C9B4
:100FC400930744046384F5004A85D125232A040247
:100FD4008357C4002322040093F7B7FD2316F400BB
:100FE4001C481CC08357C40093E787002316F400F1
:100FF4001C4881EF8357C4001307002093F7072888
:101004006385E700A2854A85252B8317C4001397BF
:10101400070193F6170041839DC25448232404001A
:10102400B306D04014CC1448014581E61377070871
:1010340031FFB240224492440249410182809376B6
:101044002700014691E2504810C4F1BFAA881385D5
:1010540081811C4181EF1387C18D18C113050000E4
:10106400BA8709C51C412324F708BA87D8437D48A9
:101074007D556346E804638D080203A8870863006E
:10108400080413152700429510C1032308100546D0
:101094003316E6003363C300232068102320D508E9
:1010A40089466397D80083264810558E2322C8109A
:1010B400930617000A07D4C3BA978CC701458280E8
:1010C400411183A78180328806C6AA882E87C84723
:1010D4003686971700009387672E631708009717C3
:1010E40000009387A7163E88C6869715000093854F
:1010F400E52D9526EF00D06983D7C500011122CCD8
:1011040026CA06CE4AC84EC613F78700AA842E8480
:1011140075E3D8416347E000B8416344E00001450A
:1011240075A858546DDF856603A90400F58F23A0C4
:101134000400A5CF68488357C400918B99C75C40CD
:101144001D8D5C5899C33C401D8D5C540C502A86FF
:10115400814626858297FD570357C400631DF50019
:101164009440F54763E3D708B70740208507B3D712
:10117400D700858BBDCB1C48232204001CC0856787
:101184007D8F19C7FD576314F5009C4091E368C82F
:101194004C5823A02401C1D5930744046384F5006B
:1011A4002685F521232A04029DBF0C50854601465D
:1011B40026850297FD57E310F5F89C40ADDF75478F
:1011C4006385E70059476395E70023A0240181BFA5
:1011D4008357C40093E707042316F400F2406244E3
:1011E400D2444249B2490561828013670704231639
:1011F400E400EDB783A90501E38309F203A905001F
:101204008D8B23A0350133093941014791E3D84936
:1012140018C4E35620F11C540C50CA864E86268509
:101224008297634AA0008357C4007D5593E707045F
:101234002316F40065B7AA993309A940D9BF9C497C
:10124400B9CF011122CC06CE2A8411C51C4D81E7E9
:101254002EC61922B245971700009387271C639B5B
:10126400F5004C408397C50095C722856244F2403F
:10127400056159B5971700009387471C6394F500DF
:101284000C44CDB79717000093874717E39CF5FCF0
:101294004C44C9BFF2406244014505618280014566
:1012A4008280411122C406C62A842316B50023175E
:1012B400C500232005002322050023240500232242
:1012C400050623280500232A0500232C05002146B2
:1012D40081451305C505012E97170000938727BD87
:1012E4005CD097170000938787BF1CD49717000022
:1012F4009387C7C35CD497170000938787C6B2400F
:1013040000D01CD8224441018280970500009385B7
:1013140045F3A5A2411126C2130680069384F5FF66
:10132400B384C4024AC02E8922C406C693854407E6
:1013340001212A8419C9232005002322250131050E
:1013440008C4138684068145792CB2402285224440
:1013540092440249410182801C4DADE3411122C4F3
:1013640006C697070000938787FA1CD52324050433
:10137400232605042328050483A701812A846314F2
:10138400F50085471CCD22851D2848C022850528E7
:1013940008C422852D2048C4484001469145113790
:1013A40008440546A545F53D48440946C945D53D8B
:1013B4008547B2401CCC2244410182808280411185
:1013C40026C283A401819C4C4AC006C622C42A8931
:1013D40099E326855137938484048044DC40FD17C7
:1013E40063D607009C40B1CF8440C5BF0317C40037
:1013F40031E7C17785072322040623200400232232
:101404000400232404005CC423280400232A0400C9
:10141400232C0400214681451305C405E922232A0F
:101424000402232C04022324040423260404B240CB
:101434002285224492440249410182801304840695
:1014440079BF91454A85F93588C02A8451FDB14751
:101454002320F900E9BF397132D436D62E863410F0
:10146400AA8503A5818006CE3AD83EDA42DC46DE60
:1014740036C60121F24021618280797122D44AD09A
:101484004ECE52CC5AC85EC606D626D256CA2A8931
:101494002E8A130485048149054BFD5B0444832A89
:1014A4004400FD1A63D00A0200406DF8B250225481
:1014B40092540259624AD24A424BB24B4E85F24987
:1014C4004561828083D7C400637BFB008397E4007B
:1014D40063877701A6854A85029AB3E9A9009384B4
:1014E4008406C1B75971CAD02E898395E500A2D468
:1014F400A6D286D63284B68463DC05008317C9007D
:1015040023A0040093F7070895E3930700400DA078
:101514003000EF00502BE34305FE3247BD67F98FDF
:101524007977BA9793B717009CC0C5B7930700049F
:10153400B6501CC0265496540659014565618280F4
:1015440083D7C500011122CC06CE26CA4AC8898B8E
:101554002E8489CF930774041CC01CC885475CC8BB
:10156400F2406244D24442490561828074003000F2
:101574002A898D3FA245AA844A855D2A01ED8317F5
:10158400C40013F7072069FFF19B93E72700231694
:10159400F400C9B797070000938767D72324F9029B
:1015A4008357C40008C008C893E707082316F4004B
:1015B400A2475CC8B24791CF8315E4004A85EF0087
:1015C400302301C98357C400F19B93E71700231606
:1015D400F4000355C400C98C2316940051B7AA859E
:1015E40003A58180B1A23D432A876373C302937725
:1015F400F700BDEFADE5937606FF3D8ABA960CC3BE
:101604004CC30CC74CC74107E36BD7FE11E2828081
:10161400B306C3408A069702000096966780A60028
:101624002307B700A306B7002306B700A305B70036
:101634002305B700A304B7002304B700A303B7002E
:101644002303B700A302B7002302B700A301B70026
:101654002301B700A300B7002300B700828093F5ED
:10166400F50F93968500D58D93960501D58D61B7B9
:10167400939627009702000096968682E78086FA62
:101684009680C1171D8F3E96E374C3F8A5B7C5C1F4
:1016940083A7C5FF011122CC06CE1384C5FF63D3F3
:1016A40007003E942AC6EF00901B1387C1811C4398
:1016B400324589EB2322040000C36244F2400561F1
:1016C4006F00101A637DF4001040B306C4006396E3
:1016D400D7009443DC43B29614C05CC0F1BF3E878C
:1016E400DC4399C3E37DF4FE14433306D700631F40
:1016F40086001040B29614C33306D700E39FC7FA9E
:101704009043DC43B29614C35CC345BF6375C40005
:10171400B1471CC15DB71040B306C4006396D7003F
:101724009443DC43B29614C05CC040C379B7828052
:10173400011126CA93843500F1984AC806CE22CCFA
:101744004EC6A104B1472A8963F2F404B14463E1AB
:10175400B4044A85EF00B0109386C18198423A845C
:1017640039E0138401821C4089E781454A85112FA1
:1017740008C0A6854A853127FD59631A3507B14744
:101784002320F9004A85EF00B00D31A0E3D104FC19
:10179400B1472320F9000145F2406244D244424952
:1017A400B249056182801C40858F63CF07022D46B4
:1017B4006376F6001CC03E9404C029A05C40631309
:1017C40087029CC24A85EF00B0091305B400930751
:1017D400440061993307F540E300F5FC3A94898F9E
:1017E4001CC05DBF5CC3F9BF2287404095BF130492
:1017F40035007198E30285FCB305A4404A85512560
:10180400E31C35FBADBF1C46FD171CC663DA07009D
:10181400184E63C5E700A9476394F5006FF0AFE67F
:101824001C422E851387170018C22380B7008280BC
:10183400011122CC26CA4AC84EC652C406CE2A89F1
:10184400AE893284B304D6007D5A631494000145F2
:1018540009A8834504004E864A8575370504E316B6
:1018640045FFF2406244D2444249B249224A0561EA
:101874008280357122CD26CB4AC94EC706CF52C5C8
:1018840056C35AC1DEDEE2DCE6DAAA89AE843289C6
:10189400368401C51C4D91E3C1349717000093872A
:1018A400E7B7639BF40C83A4490083D7C400A18BDE
:1018B400F5C79C48E5C793070002A304F102930708
:1018C400000302D22305F10222C6930B5002971A99
:1018D4000000938AAAB8054C294B4A848347040024
:1018E40099C36390770FB30C2441630D2401E686FA
:1018F4004A86A6854E852D3FFD576304F51E9257F3
:10190400E6973ED283470400638D071CFD571309F5
:10191400140002C802CE3ECA02CCA309010482D438
:101924008345090015465685312FC2471304190013
:1019340059E913F7070109C713070002A309E104D2
:1019440013F7870009C71307B002A309E10483460C
:1019540009001307A0026380E608F2474A8481461F
:1019640025460347040093051400130707FD637914
:10197400E60AB5CA3ECE85A897170000938707AC40
:101984006395F40083A489000DB79717000093872B
:10199400E7A6E39CF4F083A4C90001BFA6854E85A5
:1019A400EFF06FDA09D97D55FA406A44DA444A49BE
:1019B400BA492A4A9A4A0A4BF65B665CD65C0D61C0
:1019C4008280050421BF330555413315AC00C98F0E
:1019D4003EC82289B1B7324793064700184336C63A
:1019E400634907023ACE034704009307E002631FEA
:1019F400F704034714009307A002631BF702B247DE
:101A04000904138747009C433AC663C107023ECAD0
:101A140035A83307E04093E727003ACE3EC8E1B744
:101A2400B38767032E848546BA9725BFFD57C5B78C
:101A3400050402CA814681472546034704009305ED
:101A44001400130707FD6374E606F1F283450400EE
:101A54000D46171500001305E5A0ED2311CD9717CA
:101A64000000938727A01D8D93070004B397A70058
:101A7400424505045D8D2AC883450400194617159F
:101A840000001305659E130914002304B1025D2BA5
:101A94002DC19307000095E74247B247137707101B
:101AA40009CF91073EC69257D2973ED23DB5B38730
:101AB40067032E848546BA9749B79D07E19BA10722
:101AC400D5B77800970600009386C6D626860C08FC
:101AD4004E8597000000E7000000FD572A8AE314B2
:101AE400F5FC83D7C40093F70704E39E07EA125575
:101AF40065BD7800970600009386C6D326860C0839
:101B04004E85012AD9BF797152CC9C493A8A9845AD
:101B140022D426D24ECE56CA06D64AD05AC85EC65B
:101B2400AA892E84B284B68A63D3E700BA879CC09C
:101B34000347340419C385079CC01C4093F707026C
:101B440081C79C4089079CC003290400137969005C
:101B5400631A0900130B9401FD5B5C449840998F50
:101B6400634CF90483473404B336F0001C4093F704
:101B74000702A5EB13063404D6854E85029AFD5759
:101B84006303F5041C4011469840998B54448144E6
:101B94006397C700B384E64063D3040081441C44C4
:101BA40018486354F700998FBE94014969047D5B1A
:101BB40063982405014509A885465A86D6854E852D
:101BC400029A631E75017D55B250225492540259F3
:101BD400F249624AD24A424BB24B456182800509BE
:101BE400ADBF3307D40013060003A301C7040347A2
:101BF400540493871600A2978906A381E7049DBF26
:101C040085462286D6854E85029AE30E65FB050934
:101C140045B7797122D426D24AD04ECE06D652CCBC
:101C240056CA5AC803C8850193078007AA842E841C
:101C34003289B68963EE070193072006938635043B
:101C440063ED07016305081C93078005630AF81216
:101C5400930A24042301040515A89307D8F993F7DC
:101C6400F70F5546E366F6FE171600001306C68204
:101C74008A07B2979C43B29782871C43938A2504B0
:101C8400938647009C4314C32381F50485475DA2D2
:101C94009C41084313F60708930545000DC21C41F7
:101CA4000CC363D807001307D002B307F040A301A5
:101CB400E404170600001306A67B2948A1A013F626
:101CC40007041C410CC371DEC207C187D9BF904110
:101CD4001C43137506089385470001C50CC39C4338
:101CE40039A0137606040CC37DDA83D707001307E3
:101CF400F006170600001306A6776304E80E2948C9
:101D0400A3010404584018C4634507000C40ED992E
:101D14000CC099E3B68A19CFB68A33F70703FD1AC4
:101D24003297034707002380EA003E87B3D70703AF
:101D3400E37507FFA147631EF8001C40858B91CB18
:101D440058401C4863C7E70093070003A38FFAFEBB
:101D5400FD1AB386564114C84E87CA867000A28500
:101D6400268555337D5A631B450D7D55B25022544B
:101D740092540259F249624AD24A424B45618280E6
:101D8400A3820505170600001306866E0C4008435F
:101D940013F805081C411105630D080208C313F765
:101DA400150001C793E505020CC04148B1FB18407A
:101DB4001377F7FD18C0A9B79C4193E707029CC1AC
:101DC40093078007A302F404170600001306866B2A
:101DD40075BF13F8050408C3E30308FCC207C183F5
:101DE4007DBF214831BF90411C43CC49137806087C
:101DF400138547006306080008C39C438CC301A8ED
:101E040008C3137606049C4375DA2390B70023288D
:101E14000400B68A91B71C43D0418145938647009C
:101E240014C383AA07005685312C01C533055541D7
:101E340048C05C401CC8A301040439BF144856863A
:101E4400CA8526858299E30245F31C40898B8DE778
:101E5400B2474844E35CF5F03E8509BF85465686A3
:101E6400CA8526858299E30265F1050A5C443247F6
:101E7400998FE345FAFEE9BF014A930A94017D5B19
:101E8400F5B7411122C42A842E8523AA018006C6EF
:101E9400EFE0EFB5FD576316F50083A7418191C3C9
:101EA4001CC0B240224441018280411122C42E84CC
:101EB4008395E50006C67522634905007C48AA9708
:101EC4007CC8B2402244410182808357C4007D779C
:101ED4007D17F98F2316F400EDB783D7C5000111E0
:101EE40022CC26CA4AC84EC606CE93F70710AA8447
:101EF4002E843289B68991C78395E50089460146C7
:101F0400212A8357C4007D777D17F98F8315E40058
:101F14002316F4006244F240CE864A86B24942490E
:101F24002685D24405613DA8411122C42E8483959F
:101F3400E50006C6D520FD570357C400631BF50012
:101F4400FD77FD17F98F2316F400B24022444101B6
:101F540082808567D98F2316F40068C8FDB78395FE
:101F6400E50035A8411122C42A842E85B28536861F
:101F740023AA018006C6EFE04FAAFD576316F500B9
:101F840083A7418191C31CC0B24022444101828095
:101F94004111194506C6A92A0545EFE0CF9F411115
:101FA40022C42A842E8523AA018006C6EFE00F9E50
:101FB400FD576316F50083A7418191C31CC0B2404D
:101FC400224441018280411122C42A842E85B28593
:101FD40023AA018006C6EFE06F9CFD576316F50047
:101FE40083A7418191C31CC0B24022444101828035
:101FF400411122C42A842E8523AA018006C6EFE05B
:10200400CF9BFD576316F50083A7418191C31CC084
:10201400B240224441018280411122C42A842E8587
:10202400B285368623AA018006C6EFE0EF99FD57F4
:102034006316F50083A7418191C31CC0B2402244BA
:102044004101828093F5F50F2A966314C50001457A
:10205400828083470500E38DB7FE0505FDB78280C6
:102064008280411122C42A842E85B285368623AA11
:10207400018006C6EFE08F95FD576316F50083A730
:10208400418191C31CC0B2402244410182800111AC
:1020940022CC06CEFD472A8463F9B700D9471CC178
:1020A4007D55F2406244056182807C412E8691C751
:1020B40013972500BA97984319EB228532C69520C9
:1020C400AA85228562443246F240056135A08546E0
:1020D4000145E308D7FCFD566316D700D9471CC059
:1020E4000545C1B72E8523A007000297014555BFBA
:1020F400AA8503A5818061BF411122C42A842E854B
:10210400B28523AA018006C6EFE06F8BFD576316E4
:10211400F50083A7418191C31CC0B2402244410110
:0621240082806FE04F898C
:10212C005472617020696E20457863657074696FB4
:10213C006E0D00004D43415553453A203078256CC7
:10214C00780D0A004D45504320203A203078256CFC
:10215C00780D0A004D5456414C203A203078256CAD
:10216C00780D0A005472617020696E20496E746596
:10217C0072727570740D000032313A30343A333467
:10218C00000000004D6172203239203230323200B2
:10219C0048756D6D696E67426972642053444B20BB
:1021AC004275696C642054696D653A2025732C2046
:1021BC0025730D0A00000000494C4D00446F776EEA
:1021CC006C6F6164204D6F64653A2025730D0A00B5
:1021DC00435055204672657175656E637920256C88
:1021EC007520487A0D0A00004D4953413A20525649
:1021FC0025730D0A000000004D4953413A203078F8
:10220C00256C780D0A0000004C4544203520546F95
:10221C0067676C656420000025643A2048656C6C27
:10222C006F20576F726C642046726F6D2052495349
:10223C00432D562050726F636573736F72210D0AB4
:10224C000000000000010202030303030404040461
:10225C000404040405050505050505050505050526
:10226C000505050506060606060606060606060606
:10227C0006060606060606060606060606060606F2
:10228C0006060606070707070707070707070707D6
:10229C0007070707070707070707070707070707C2
:1022AC0007070707070707070707070707070707B2
:1022BC0007070707070707070707070707070707A2
:1022CC000707070708080808080808080808080886
:1022DC000808080808080808080808080808080872
:1022EC000808080808080808080808080808080862
:1022FC000808080808080808080808080808080852
:10230C000808080808080808080808080808080841
:10231C000808080808080808080808080808080831
:10232C000808080808080808080808080808080821
:10233C000808080808080808080808080808080811
:10234C00080808085245454E54206D616C6C6F634B
:10235C002073756363656564656400002F686F6D39
:10236C00652F786C5F63692F746F6F6C636861693C
:10237C006E2F72697363762D676E752D746F6F6C2B
:10238C00636861696E2F72697363762D6E65776C05
:10239C0069622F6E65776C69622F6C6962632F734B
:1023AC0074646C69622F72616E642E6300000000AD
:1023BC002C2066756E6374696F6E3A200000000005
:1023CC00617373657274696F6E20222573222066A7
:1023DC0061696C65643A2066696C652022257322FC
:1023EC002C206C696E65202564257325730A00000A
:1023FC0000000000000000000000000000000000D1
:10240C0000000000000000000000000000000000C0
:10241C0000000000000000000000000000000000B0
:10242C0000000000000000000000000000000000A0
:10243C000000000000000000000000000000000090
:10244C000000000000000000000000000000000080
:10245C00232D302B20000000686C4C00656667450E
:10246C004647000030313233343536373839414243
:10247C0043444546000000003031323334353637A2
:10248C00383961626364656600000000E6F7FFFF9F
:10249C00FCF7FFFFBCF7FFFFBCF7FFFFBCF7FFFF2C
:1024AC00BCF7FFFFFCF7FFFFBCF7FFFFBCF7FFFF1C
:1024BC00BCF7FFFFBCF7FFFF52F9FFFF3AF8FFFF35
:1024CC0024F9FFFFBCF7FFFFBCF7FFFF82F9FFFF0A
:1024DC00BCF7FFFF3AF8FFFFBCF7FFFFBCF7FFFFAD
:0424EC002CF9FFFFC9
:1024F000000000001C2400803C240080FC2300809D
:1025000000000000000000000000000000000000CB
:1025100000000000000000000000000000000000BB
:1025200000000000000000000000000000000000AB
:10253000000000000000000000000000000000009B
:10254000000000000000000000000000000000008B
:10255000C801009000B4C404000000900000000016
:0425600000000090E7
:040000058000000077
:00000001FF
